{
  "address": "0x7E2E33541394122f609CD5d1c46C33C8ED09F77f",
  "abi": [
    {
      "inputs": [
        {
          "internalType": "address",
          "name": "_nftAddress",
          "type": "address"
        },
        {
          "internalType": "uint256",
          "name": "_nftId",
          "type": "uint256"
        },
        {
          "internalType": "uint256",
          "name": "_startingBid",
          "type": "uint256"
        }
      ],
      "stateMutability": "nonpayable",
      "type": "constructor"
    },
    {
      "anonymous": false,
      "inputs": [
        {
          "indexed": false,
          "internalType": "address",
          "name": "Bider",
          "type": "address"
        },
        {
          "indexed": false,
          "internalType": "uint256",
          "name": "amount",
          "type": "uint256"
        }
      ],
      "name": "Bid",
      "type": "event"
    },
    {
      "anonymous": false,
      "inputs": [
        {
          "indexed": false,
          "internalType": "address",
          "name": "highestBider",
          "type": "address"
        },
        {
          "indexed": false,
          "internalType": "uint256",
          "name": "Bid",
          "type": "uint256"
        }
      ],
      "name": "End",
      "type": "event"
    },
    {
      "anonymous": false,
      "inputs": [],
      "name": "Start",
      "type": "event"
    },
    {
      "anonymous": false,
      "inputs": [
        {
          "indexed": false,
          "internalType": "address",
          "name": "Bider",
          "type": "address"
        },
        {
          "indexed": false,
          "internalType": "uint256",
          "name": "amount",
          "type": "uint256"
        }
      ],
      "name": "Withdraw",
      "type": "event"
    },
    {
      "inputs": [],
      "name": "auctionEnded",
      "outputs": [
        {
          "internalType": "bool",
          "name": "",
          "type": "bool"
        }
      ],
      "stateMutability": "view",
      "type": "function"
    },
    {
      "inputs": [],
      "name": "auctionStarted",
      "outputs": [
        {
          "internalType": "bool",
          "name": "",
          "type": "bool"
        }
      ],
      "stateMutability": "view",
      "type": "function"
    },
    {
      "inputs": [],
      "name": "bid",
      "outputs": [],
      "stateMutability": "payable",
      "type": "function"
    },
    {
      "inputs": [
        {
          "internalType": "address",
          "name": "",
          "type": "address"
        }
      ],
      "name": "bids",
      "outputs": [
        {
          "internalType": "uint256",
          "name": "",
          "type": "uint256"
        }
      ],
      "stateMutability": "view",
      "type": "function"
    },
    {
      "inputs": [],
      "name": "end",
      "outputs": [],
      "stateMutability": "nonpayable",
      "type": "function"
    },
    {
      "inputs": [],
      "name": "endAt",
      "outputs": [
        {
          "internalType": "uint32",
          "name": "",
          "type": "uint32"
        }
      ],
      "stateMutability": "view",
      "type": "function"
    },
    {
      "inputs": [],
      "name": "highestBid",
      "outputs": [
        {
          "internalType": "uint256",
          "name": "",
          "type": "uint256"
        }
      ],
      "stateMutability": "view",
      "type": "function"
    },
    {
      "inputs": [],
      "name": "highestBider",
      "outputs": [
        {
          "internalType": "address",
          "name": "",
          "type": "address"
        }
      ],
      "stateMutability": "view",
      "type": "function"
    },
    {
      "inputs": [],
      "name": "nftContract",
      "outputs": [
        {
          "internalType": "contract IERC721",
          "name": "",
          "type": "address"
        }
      ],
      "stateMutability": "view",
      "type": "function"
    },
    {
      "inputs": [],
      "name": "nftId",
      "outputs": [
        {
          "internalType": "uint256",
          "name": "",
          "type": "uint256"
        }
      ],
      "stateMutability": "view",
      "type": "function"
    },
    {
      "inputs": [],
      "name": "seller",
      "outputs": [
        {
          "internalType": "address payable",
          "name": "",
          "type": "address"
        }
      ],
      "stateMutability": "view",
      "type": "function"
    },
    {
      "inputs": [],
      "name": "startAuction",
      "outputs": [],
      "stateMutability": "nonpayable",
      "type": "function"
    },
    {
      "inputs": [],
      "name": "withdraw",
      "outputs": [],
      "stateMutability": "nonpayable",
      "type": "function"
    }
  ],
  "transactionHash": "0x876854c3416134d12df75b08e9aa37392abad7fe7bd9b11fbc8668bb513a0a94",
  "args": [
    "0xAE3b2cC289Bb07858F6795C55CEeAdaC9D1ddb85",
    2,
    1
  ],
  "numDeployments": 1,
  "solcInputHash": "d91ce757f6e038935da12a5014503b8e",
  "bytecode": "0x60e06040523480156200001157600080fd5b506040516200170a3803806200170a83398181016040528101906200003791906200015c565b8273ffffffffffffffffffffffffffffffffffffffff1660808173ffffffffffffffffffffffffffffffffffffffff16815250508160a081815250503373ffffffffffffffffffffffffffffffffffffffff1660c08173ffffffffffffffffffffffffffffffffffffffff168152505080600181905550505050620001b8565b600080fd5b600073ffffffffffffffffffffffffffffffffffffffff82169050919050565b6000620000e982620000bc565b9050919050565b620000fb81620000dc565b81146200010757600080fd5b50565b6000815190506200011b81620000f0565b92915050565b6000819050919050565b620001368162000121565b81146200014257600080fd5b50565b60008151905062000156816200012b565b92915050565b600080600060608486031215620001785762000177620000b7565b5b600062000188868287016200010a565b93505060206200019b8682870162000145565b9250506040620001ae8682870162000145565b9150509250925092565b60805160a05160c0516114dc6200022e600039600081816102ad015281816106a40152818161080501528181610b8a0152610c99015260008181610827015281816108ed01528181610b170152610cba0152600081816107c90152818161091101528181610ab70152610c5c01526114dc6000f3fe6080604052600436106100c25760003560e01c80637cc3ae8c1161007f578063d56d229d11610059578063d56d229d14610213578063d57bde791461023e578063ee2679bc14610269578063efbe1c1c14610294576100c2565b80637cc3ae8c1461019257806386433374146101bd578063c6bc5182146101e8576100c2565b806308551a53146100c75780631998aeef146100f25780633ccfd60b146100fc57806362ea82db146101135780636b57707e146101505780636b64c7691461017b575b600080fd5b3480156100d357600080fd5b506100dc6102ab565b6040516100e99190610dca565b60405180910390f35b6100fa6102cf565b005b34801561010857600080fd5b50610111610455565b005b34801561011f57600080fd5b5061013a60048036038101906101359190610e28565b610664565b6040516101479190610e6e565b60405180910390f35b34801561015c57600080fd5b5061016561067c565b6040516101729190610e98565b60405180910390f35b34801561018757600080fd5b506101906106a2565b005b34801561019e57600080fd5b506101a76108c4565b6040516101b49190610ed2565b60405180910390f35b3480156101c957600080fd5b506101d26108d8565b6040516101df9190610f08565b60405180910390f35b3480156101f457600080fd5b506101fd6108eb565b60405161020a9190610e6e565b60405180910390f35b34801561021f57600080fd5b5061022861090f565b6040516102359190610f82565b60405180910390f35b34801561024a57600080fd5b50610253610933565b6040516102609190610e6e565b60405180910390f35b34801561027557600080fd5b5061027e610939565b60405161028b9190610f08565b60405180910390f35b3480156102a057600080fd5b506102a961094c565b005b7f000000000000000000000000000000000000000000000000000000000000000081565b600060049054906101000a900460ff1661031e576040517f08c379a000000000000000000000000000000000000000000000000000000000815260040161031590610ffa565b60405180910390fd5b600060059054906101000a900460ff161561036e576040517f08c379a000000000000000000000000000000000000000000000000000000000815260040161036590611066565b60405180910390fd5b600154341161037c57600080fd5b33600060066101000a81548173ffffffffffffffffffffffffffffffffffffffff021916908373ffffffffffffffffffffffffffffffffffffffff1602179055503460018190555034600260003373ffffffffffffffffffffffffffffffffffffffff1673ffffffffffffffffffffffffffffffffffffffff168152602001908152602001600020600082825461041391906110b5565b925050819055507fe684a55f31b79eca403df938249029212a5925ec6be8012e099b45bc1019e5d2333460405161044b9291906110e9565b60405180910390a1565b6000600260003373ffffffffffffffffffffffffffffffffffffffff1673ffffffffffffffffffffffffffffffffffffffff1681526020019081526020016000205490506000811180156104f75750600060069054906101000a900473ffffffffffffffffffffffffffffffffffffffff1673ffffffffffffffffffffffffffffffffffffffff163373ffffffffffffffffffffffffffffffffffffffff1614155b610536576040517f08c379a000000000000000000000000000000000000000000000000000000000815260040161052d9061115e565b60405180910390fd5b6000600260003373ffffffffffffffffffffffffffffffffffffffff1673ffffffffffffffffffffffffffffffffffffffff1681526020019081526020016000208190555060003373ffffffffffffffffffffffffffffffffffffffff16826040516105a1906111af565b60006040518083038185875af1925050503d80600081146105de576040519150601f19603f3d011682016040523d82523d6000602084013e6105e3565b606091505b5050905080610627576040517f08c379a000000000000000000000000000000000000000000000000000000000815260040161061e90611210565b60405180910390fd5b7f884edad9ce6fa2440d8a54cc123490eb96d2768479d49ff9c7366125a942436433836040516106589291906110e9565b60405180910390a15050565b60026020528060005260406000206000915090505481565b600060069054906101000a900473ffffffffffffffffffffffffffffffffffffffff1681565b7f000000000000000000000000000000000000000000000000000000000000000073ffffffffffffffffffffffffffffffffffffffff163373ffffffffffffffffffffffffffffffffffffffff1614610730576040517f08c379a00000000000000000000000000000000000000000000000000000000081526004016107279061127c565b60405180910390fd5b600060049054906101000a900460ff1615610780576040517f08c379a0000000000000000000000000000000000000000000000000000000008152600401610777906112e8565b60405180910390fd5b6001600060046101000a81548160ff02191690831515021790555060a0426107a891906110b5565b6000806101000a81548163ffffffff021916908363ffffffff1602179055507f000000000000000000000000000000000000000000000000000000000000000073ffffffffffffffffffffffffffffffffffffffff166323b872dd7f0000000000000000000000000000000000000000000000000000000000000000307f00000000000000000000000000000000000000000000000000000000000000006040518463ffffffff1660e01b815260040161086493929190611329565b600060405180830381600087803b15801561087e57600080fd5b505af1158015610892573d6000803e3d6000fd5b505050507f1b55ba3aa851a46be3b365aee5b5c140edd620d578922f3e8466d2cbd96f954b60405160405180910390a1565b60008054906101000a900463ffffffff1681565b600060059054906101000a900460ff1681565b7f000000000000000000000000000000000000000000000000000000000000000081565b7f000000000000000000000000000000000000000000000000000000000000000081565b60015481565b600060049054906101000a900460ff1681565b600060049054906101000a900460ff1661099b576040517f08c379a000000000000000000000000000000000000000000000000000000000815260040161099290610ffa565b60405180910390fd5b600060059054906101000a900460ff16156109eb576040517f08c379a00000000000000000000000000000000000000000000000000000000081526004016109e290611066565b60405180910390fd5b60008054906101000a900463ffffffff1663ffffffff16421015610a44576040517f08c379a0000000000000000000000000000000000000000000000000000000008152600401610a3b906113ac565b60405180910390fd5b6001600060056101000a81548160ff021916908315150217905550600073ffffffffffffffffffffffffffffffffffffffff16600060069054906101000a900473ffffffffffffffffffffffffffffffffffffffff1673ffffffffffffffffffffffffffffffffffffffff1614610c5a577f000000000000000000000000000000000000000000000000000000000000000073ffffffffffffffffffffffffffffffffffffffff166323b872dd30600060069054906101000a900473ffffffffffffffffffffffffffffffffffffffff167f00000000000000000000000000000000000000000000000000000000000000006040518463ffffffff1660e01b8152600401610b54939291906113cc565b600060405180830381600087803b158015610b6e57600080fd5b505af1158015610b82573d6000803e3d6000fd5b5050505060007f000000000000000000000000000000000000000000000000000000000000000073ffffffffffffffffffffffffffffffffffffffff16600154604051610bce906111af565b60006040518083038185875af1925050503d8060008114610c0b576040519150601f19603f3d011682016040523d82523d6000602084013e610c10565b606091505b5050905080610c54576040517f08c379a0000000000000000000000000000000000000000000000000000000008152600401610c4b9061144f565b60405180910390fd5b50610d2a565b7f000000000000000000000000000000000000000000000000000000000000000073ffffffffffffffffffffffffffffffffffffffff166323b872dd307f00000000000000000000000000000000000000000000000000000000000000007f00000000000000000000000000000000000000000000000000000000000000006040518463ffffffff1660e01b8152600401610cf79392919061146f565b600060405180830381600087803b158015610d1157600080fd5b505af1158015610d25573d6000803e3d6000fd5b505050505b7f7d7570b046e5ead3a4f3fbc9fa2445113625a1e79823776146316bafed6b8cc5600060069054906101000a900473ffffffffffffffffffffffffffffffffffffffff16600154604051610d7f9291906110e9565b60405180910390a1565b600073ffffffffffffffffffffffffffffffffffffffff82169050919050565b6000610db482610d89565b9050919050565b610dc481610da9565b82525050565b6000602082019050610ddf6000830184610dbb565b92915050565b600080fd5b6000610df582610d89565b9050919050565b610e0581610dea565b8114610e1057600080fd5b50565b600081359050610e2281610dfc565b92915050565b600060208284031215610e3e57610e3d610de5565b5b6000610e4c84828501610e13565b91505092915050565b6000819050919050565b610e6881610e55565b82525050565b6000602082019050610e836000830184610e5f565b92915050565b610e9281610dea565b82525050565b6000602082019050610ead6000830184610e89565b92915050565b600063ffffffff82169050919050565b610ecc81610eb3565b82525050565b6000602082019050610ee76000830184610ec3565b92915050565b60008115159050919050565b610f0281610eed565b82525050565b6000602082019050610f1d6000830184610ef9565b92915050565b6000819050919050565b6000610f48610f43610f3e84610d89565b610f23565b610d89565b9050919050565b6000610f5a82610f2d565b9050919050565b6000610f6c82610f4f565b9050919050565b610f7c81610f61565b82525050565b6000602082019050610f976000830184610f73565b92915050565b600082825260208201905092915050565b7f41756374696f6e206e6f74205374617274726400000000000000000000000000600082015250565b6000610fe4601383610f9d565b9150610fef82610fae565b602082019050919050565b6000602082019050818103600083015261101381610fd7565b9050919050565b7f41756374696f6e20456e64730000000000000000000000000000000000000000600082015250565b6000611050600c83610f9d565b915061105b8261101a565b602082019050919050565b6000602082019050818103600083015261107f81611043565b9050919050565b7f4e487b7100000000000000000000000000000000000000000000000000000000600052601160045260246000fd5b60006110c082610e55565b91506110cb83610e55565b92508282019050808211156110e3576110e2611086565b5b92915050565b60006040820190506110fe6000830185610e89565b61110b6020830184610e5f565b9392505050565b7f596f7520617265206e6f74206269646572000000000000000000000000000000600082015250565b6000611148601183610f9d565b915061115382611112565b602082019050919050565b600060208201905081810360008301526111778161113b565b9050919050565b600081905092915050565b50565b600061119960008361117e565b91506111a482611189565b600082019050919050565b60006111ba8261118c565b9150819050919050565b7f5472616e73616374696f6e204661696c65640000000000000000000000000000600082015250565b60006111fa601283610f9d565b9150611205826111c4565b602082019050919050565b60006020820190508181036000830152611229816111ed565b9050919050565b7f4e6f742053656c6c657200000000000000000000000000000000000000000000600082015250565b6000611266600a83610f9d565b915061127182611230565b602082019050919050565b6000602082019050818103600083015261129581611259565b9050919050565b7f41756374696f6e20416c72656164792053746172746564000000000000000000600082015250565b60006112d2601783610f9d565b91506112dd8261129c565b602082019050919050565b60006020820190508181036000830152611301816112c5565b9050919050565b600061131382610f4f565b9050919050565b61132381611308565b82525050565b600060608201905061133e600083018661131a565b61134b6020830185610e89565b6113586040830184610e5f565b949350505050565b7f6e6f7420656e6465640000000000000000000000000000000000000000000000600082015250565b6000611396600983610f9d565b91506113a182611360565b602082019050919050565b600060208201905081810360008301526113c581611389565b9050919050565b60006060820190506113e16000830186610e89565b6113ee6020830185610e89565b6113fb6040830184610e5f565b949350505050565b7f5472616e736374696f6e204661696c6564000000000000000000000000000000600082015250565b6000611439601183610f9d565b915061144482611403565b602082019050919050565b600060208201905081810360008301526114688161142c565b9050919050565b60006060820190506114846000830186610e89565b611491602083018561131a565b61149e6040830184610e5f565b94935050505056fea264697066735822122084c55472319aa9906b6df6267fd405477436c42ae7a1d6e5883cd407df73a3a864736f6c63430008110033",
  "devdoc": {
    "kind": "dev",
    "methods": {},
    "version": 1
  },
  "userdoc": {
    "kind": "user",
    "methods": {},
    "version": 1
  },
  "storageLayout": {
    "storage": [
      {
        "astId": 40,
        "contract": "contracts/EnglishAuction.sol:EnglishAuction",
        "label": "endAt",
        "offset": 0,
        "slot": "0",
        "type": "t_uint32"
      },
      {
        "astId": 42,
        "contract": "contracts/EnglishAuction.sol:EnglishAuction",
        "label": "auctionStarted",
        "offset": 4,
        "slot": "0",
        "type": "t_bool"
      },
      {
        "astId": 44,
        "contract": "contracts/EnglishAuction.sol:EnglishAuction",
        "label": "auctionEnded",
        "offset": 5,
        "slot": "0",
        "type": "t_bool"
      },
      {
        "astId": 46,
        "contract": "contracts/EnglishAuction.sol:EnglishAuction",
        "label": "highestBider",
        "offset": 6,
        "slot": "0",
        "type": "t_address"
      },
      {
        "astId": 48,
        "contract": "contracts/EnglishAuction.sol:EnglishAuction",
        "label": "highestBid",
        "offset": 0,
        "slot": "1",
        "type": "t_uint256"
      },
      {
        "astId": 52,
        "contract": "contracts/EnglishAuction.sol:EnglishAuction",
        "label": "bids",
        "offset": 0,
        "slot": "2",
        "type": "t_mapping(t_address,t_uint256)"
      }
    ],
    "types": {
      "t_address": {
        "encoding": "inplace",
        "label": "address",
        "numberOfBytes": "20"
      },
      "t_bool": {
        "encoding": "inplace",
        "label": "bool",
        "numberOfBytes": "1"
      },
      "t_mapping(t_address,t_uint256)": {
        "encoding": "mapping",
        "key": "t_address",
        "label": "mapping(address => uint256)",
        "numberOfBytes": "32",
        "value": "t_uint256"
      },
      "t_uint256": {
        "encoding": "inplace",
        "label": "uint256",
        "numberOfBytes": "32"
      },
      "t_uint32": {
        "encoding": "inplace",
        "label": "uint32",
        "numberOfBytes": "4"
      }
    }
  }
}